:03000B00020A6581
:0B0A6500C0E0C0D075D000C006C00784
:100A7000E4FFFE758901758CFC758A660FBF000165
:070A80000EEF64324E70EC32
:090A8700D007D006D0D0D0E03237
:060A9000120A96120B4150
:100A9600E4FFFE758910758DFC758B66D28E308FDE
:100AA600FDC28FC28E0FBF00010EEF64964E70E33B
:010AB600221D
:100B0F00E4F580F590F5A0C2B0C2B1C2B2C2B32273
:090B4B00C2B5C2B4C2B7C2B622A1
:100AB70020B50620B403D2B42220B50830B405D23D
:100AC700B5C2B42230B50620B403D2B422120B4B00
:010AD70022FC
:100AD80020B70620B603D2B62220B70830B605D212
:100AE800B7C2B62230B70620B603D2B622120B4BD5
:010AF80022DB
:0B0B2B007590FFD2B0E4F5A0C2B1222B
:0B0B3600E4F590C2B075A0FFD2B12220
:0A0B4100E4F590C2B0F5A0C2B122A5
:10090B0030900630910320923F30930630940320B1
:10091B00953630960630970320B02D3090063093E5
:10092B000320962430910630940320971B309206B7
:10093B0030950320B01230900630940320B009306C
:08094B00924A309447309644B3
:10095300E4F50BF50AF509F508E47F03FEFDFCABAE
:100963000BAA0AA909A808C3120AF95021120B2BD2
:10097300120A90E4FAF9F8E50B2401F50BEA350ABB
:10098300F50AE93509F509E83508F50880CB120AB7
:04099300B7120B0F7D
:01099700223D
:1009980030A00630A10320A23F30A30630A40320D4
:1009A800A53630A60630A70320B12D30A00630A307
:1009B8000320A62430A10630A40320A71B30A206DA
:1009C80030A50320B11230A00630A40320B10930AD
:0809D800A24A30A44730A644F6
:1009E000E4F50BF50AF509F508E47F03FEFDFCAB21
:1009F0000BAA0AA909A808C3120AF95021120B363A
:100A0000120A90E4FAF9F8E50B2401F50BEA350A2D
:100A1000F50AE93509F509E83508F50880CB120A29
:040A2000D8120B0FCE
:010A240022AF
:100A250020A00330903920A10330913320A2033058
:100A3500922D20A30330932720A40330942120A5D1
:100A45000330951B20A60330961520A70330970F7A
:100A550020B10330B009120B0F120A96120A962222
:10080000758901758CFC758A66D2A9D2AFD28C121B
:100810000B0F120B4B30801720901420A01120B327
:1008200008D290C2A0D2B38006C290D2A0C2B33088
:10083000811720911420A11120B308D291C2A1D216
:10084000B38006C291D2A1C2B33082172092142085
:10085000A21120B308D292C2A2D2B38006C292D211
:10086000A2C2B330831720931420A31120B308D25F
:1008700093C2A3D2B38006C293D2A3C2B33084176B
:1008800020941420A41120B308D294C2A4D2B3801F
:1008900006C294D2A4C2B330851720951420A511A6
:1008A00020B308D295C2A5D2B38006C295D2A5C204
:1008B000B330861720961420A61120B308D296C212
:1008C000A6D2B38006C296D2A6C2B33087172097AD
:1008D0001420A71120B308D297C2A7D2B38006C2B2
:1008E00097D2A7C2B330B21720B01420B11120B3F1
:1008F00008D2B0C2B1D2B38006C2B0D2B1C2B31274
:0B090000099812090B120A25020815C5
:03000000020B1FD1
:0C0B1F00787FE4F6D8FD75810B02080019
:100AF900EB9FF5F0EA9E42F0E99D42F0EC6480C874
:060B090064809845F02213
:00000001FF
